:100000000C942A000C9447000C9447000C94470071
:100010000C9447000C9447000C94B7060C944700CE
:100020000C9447000C9447000C9447000C94470034
:100030000C9447000C9447000C9447000C94470024
:100040000C9447000C9447000C9447000C94470014
:100050000C94470011241FBECFE5D8E0DEBFCDBF12
:1000600010E0A0E6B0E0EAEAF1E302C005900D92EC
:10007000A639B107D9F720E0A6E9B0E001C01D928A
:10008000AB39B207E1F70E942B020C94D3180C9401
:100090000000CF93DF9300D0CDB7DEB741E067E03B
:1000A00083E00E94950382E0898381E08A83CE0108
:1000B00001960E94EC0685E092E00E944407000051
:1000C0000F900F90DF91CF910895CF93DF93CDB72D
:1000D000DEB7C854D1090FB6F894DEBF0FBECDBF4E
:1000E00041E067E083E00E94860480E090E0A0EABF
:1000F000B1E489839A83AB83BC832BEA3AEA4AEA68
:1001000050E469817A818B819C810E9426186DA3BD
:100110007EA38FA398A78DA19EA1AFA1B8A58D8323
:100120009E83AF83B88720E030E040E850E46981E7
:100130007A818B819C810E94261869A77AA78BA758
:100140009CA789A59AA5ABA5BCA589879A87AB87EB
:10015000BC8720E030E040E85FE36D817E818F81E5
:1001600098850E94C91688231CF481E08D87E6C01B
:1001700020E03FEF4FE757E469857A858B859C85C2
:100180000E94211818160CF09FC020E030E04AE7CA
:1001900054E469817A818B819C810E94CE166DA77F
:1001A0007EA78FA798AB8DA59EA5AFA5B8A98E8772
:1001B0009F87A88BB98B20E030E04AE755E46E8535
:1001C0007F85888999890E94261869AB7AAB8BABA9
:1001D0009CAB89A99AA9ABA9BCA98A8B9B8BAC8B38
:1001E000BD8B20E030E040E85FE36A897B898C8941
:1001F0009D890E94C91688232CF481E090E09F8B92
:100200008E8B56C020E03FEF4FE757E46A897B8929
:100210008C899D890E9421181816D4F520E030E0C1
:1002200040E251E46E857F85888999890E9426186D
:100230006DAB7EAB8FAB98AF8DA99EA9AFA9B8ADC2
:1002400089A39AA3ABA3BCA369A17AA18BA19CA10A
:100250000E94401769AF7AAF8BAF9CAFA9ADBAAD22
:10026000BF8BAE8B10C080E991E0998F888F888D0D
:10027000998D0197F1F7998F888F00008E899F895A
:1002800001979F8B8E8B8E899F89892B61F71BC06D
:100290006A897B898C899D890E94401721966CAF61
:1002A0007DAF8EAF9FAF21978DAD9EAD9F8B8E8B17
:1002B0008E899F899B8F8A8F8A8D9B8D0197F1F7FD
:1002C0009B8F8A8F000041C020E030E04FE753E46D
:1002D0006D817E818F8198850E9421181816F4F413
:1002E00069857A858B859C850E94401725966CAF21
:1002F0007DAF8EAF9FAF25972396AEADBFAD239751
:10030000BD8FAC8F8C8D9D8D9F8F8E8F8E8D9F8D91
:100310000197F1F79F8F8E8F000017C06D817E814E
:100320008F8198850E94401729966CAF7DAF8EAF64
:100330009FAF29972696BFAD2697BD878D8588A349
:1003400088A18A95F1F788A3000040E067E083E088
:100350000E9486040000C85BDF4F0FB6F894DEBF32
:100360000FBECDBFDF91CF910895CF93DF93CDB76F
:10037000DEB766970FB6F894DEBF0FBECDBF0E9402
:10038000650080919700909198009C0140E050E0BA
:100390002B873C874D875E876B857C858D859E8509
:1003A0000E946F176B837C838D839E8323E333E3EB
:1003B0004BE652E46B817C818D819E810E94CE163A
:1003C0006F87788B898B9A8B8F859889A989BA8951
:1003D0008F839887A987BA876F81788589859A8561
:1003E0000E9440176B8B7C8B8D8B9E8BAB89BC895D
:1003F000BA83A98389819A8166960FB6F894DEBF85
:100400000FBECDBFDF91CF910895CF93DF93CDB7CE
:10041000DEB7809196008F5F809396008091960062
:10042000813031F40E94860780E00E9457070FC098
:1004300080919600823059F40E947A079093980038
:100440008093970081E00E94570710929600000069
:10045000DF91CF910895CF93DF93CDB7DEB7A49707
:100460000FB6F894DEBF0FBECDBF8FE590E0DC0184
:100470002C918FE590E02068FC0120830E944900C8
:100480000E94BA070E9459160E9469030E94B50192
:100490009695879501969A83898380E690E00E94DD
:1004A000AF150E94B5019695879501969A83898329
:1004B0006AE080E00E94DA1589819A810E942A16FA
:1004C00089819A818436910520F480E20E941C0F74
:1004D00008C089819A810A9720F481E790E00E9400
:1004E000AF1589819A81069708F0ABC00E947B0303
:1004F00080E00E947F1681E00E947F1682E00E94C9
:100500007F1680E090E0A8ECB2E48B839C83AD83FF
:10051000BE8320E030E04AE755E46B817C818D8129
:100520009E810E9426186D8B7E8B8F8B988F8D8974
:100530009E89AF89B88D8F839887A987BA8720E075
:1005400030E040E85FE36F81788589859A850E9475
:10055000C91688232CF481E090E09C878B8754C0D7
:1005600020E03FEF4FE757E46F81788589859A85D2
:100570000E9421181816D4F520E030E040E251E442
:100580006B817C818D819E810E942618698F7A8F74
:100590008B8F9C8F898D9A8DAB8DBC8D898B9A8B1F
:1005A000AB8BBC8B69897A898B899C890E944017A7
:1005B0006D8F7E8F8F8F98A3AD8DBE8DBC87AB87DF
:1005C00010C080E991E09E878D878D859E8501977B
:1005D000F1F79E878D8700008B859C8501979C870E
:1005E0008B878B859C85892B61F719C06F817885F6
:1005F00089859A850E94401769A37AA38BA39CA33F
:10060000E9A1FAA1FC87EB878B859C85988B8F8766
:100610008F8598890197F1F7988B8F87000080E08C
:100620000E94A41681E00E94A41682E00E94A416F3
:1006300060E081E00E94DA1584E790E00E94AF1547
:1006400030CF89819A810B97C8F480E00E947F1691
:1006500081E00E947F1682E00E947F1689819A8144
:10066000069709F01ECF0E94880360E081E00E9497
:10067000DA1585E890E00E94AF1513CF89819A8141
:10068000409750F480E00E947F1681E00E947F1620
:1006900082E00E94A41605CF89819A81459750F483
:1006A00080E00E947F1681E00E94A41682E00E94F2
:1006B000A416F7CE89819A81459708F4F2CE80E09E
:1006C0000E94A41681E00E94A41682E00E94A41653
:1006D000E8CECF93DF93CDB7DEB741E065E082E0AF
:1006E0000E94950340E065E082E00E9486040000DD
:1006F000DF91CF910895CF93DF93CDB7DEB741E07F
:1007000065E082E00E9486040000DF91CF910895A9
:10071000CF93DF93CDB7DEB740E065E082E00E9483
:1007200086040000DF91CF910895CF93DF9300D02E
:100730000F92CDB7DEB789836A834B838A81883075
:1007400008F0DCC08981843008F0D9C08981882F05
:1007500090E08330910509F4A1C0843091050CF03C
:10076000CEC08230910509F469C0833091050CF048
:10077000C6C0009719F0019789F1C1C08B81813003
:10078000B1F48AE390E0FC018081482F8A81282F10
:1007900030E081E090E002C0880F991F2A95E2F7CF
:1007A000242F282B8AE390E0FC012083A8C08AE351
:1007B00090E0FC018081482F8A81282F30E081E081
:1007C00090E002C0880F991F2A95E2F78095242FA8
:1007D00028238AE390E0FC01208391C08B81813043
:1007E000B1F487E390E0FC018081482F8A81282FB3
:1007F00030E081E090E002C0880F991F2A95E2F76F
:10080000242F282B87E390E0FC01208378C087E326
:1008100090E0FC018081482F8A81282F30E081E020
:1008200090E002C0880F991F2A95E2F78095242F47
:10083000282387E390E0FC01208361C08B81813015
:10084000B1F484E390E0FC018081482F8A81282F55
:1008500030E081E090E002C0880F991F2A95E2F70E
:10086000242F282B84E390E0FC01208348C084E3FC
:1008700090E0FC018081482F8A81282F30E081E0C0
:1008800090E002C0880F991F2A95E2F78095242FE7
:10089000282384E390E0FC01208331C08B818130E8
:1008A000B1F481E390E0FC018081482F8A81282FF8
:1008B00030E081E090E002C0880F991F2A95E2F7AE
:1008C000242F282B81E390E0FC01208318C081E3D2
:1008D00090E0FC018081482F8A81282F30E081E060
:1008E00090E002C0880F991F2A95E2F78095242F87
:1008F000282381E390E0FC01208301C00000000078
:100900000F900F900F90DF91CF910895CF93DF93C9
:1009100000D00F92CDB7DEB789836A834B838A817B
:10092000883008F0DCC08981843008F0D9C0898122
:10093000882F90E08330910509F4A1C0843091059F
:100940000CF0CEC08230910509F469C08330910566
:100950000CF0C6C0009719F0019789F1C1C08B81D6
:100960008130B1F48BE390E0FC018081482F8A81D3
:10097000282F30E081E090E002C0880F991F2A956F
:10098000E2F7242F282B8BE390E0FC012083A8C002
:100990008BE390E0FC018081482F8A81282F30E092
:1009A00081E090E002C0880F991F2A95E2F78095B8
:1009B000242F28238BE390E0FC01208391C08B81BE
:1009C0008130B1F488E390E0FC018081482F8A8176
:1009D000282F30E081E090E002C0880F991F2A950F
:1009E000E2F7242F282B88E390E0FC01208378C0D5
:1009F00088E390E0FC018081482F8A81282F30E035
:100A000081E090E002C0880F991F2A95E2F7809557
:100A1000242F282388E390E0FC01208361C08B8190
:100A20008130B1F485E390E0FC018081482F8A8118
:100A3000282F30E081E090E002C0880F991F2A95AE
:100A4000E2F7242F282B85E390E0FC01208348C0A7
:100A500085E390E0FC018081482F8A81282F30E0D7
:100A600081E090E002C0880F991F2A95E2F78095F7
:100A7000242F282385E390E0FC01208331C08B8163
:100A80008130B1F482E390E0FC018081482F8A81BB
:100A9000282F30E081E090E002C0880F991F2A954E
:100AA000E2F7242F282B82E390E0FC01208318C07A
:100AB00082E390E0FC018081482F8A81282F30E07A
:100AC00081E090E002C0880F991F2A95E2F7809597
:100AD000242F282382E390E0FC01208301C0000042
:100AE00000000F900F900F90DF91CF910895CF935A
:100AF000DF9300D00F92CDB7DEB78A836B83198264
:100B00008B81883008F077C08A81843008F074C007
:100B10008A81882F90E08330910509F455C0843094
:100B200091050CF069C082309105B9F183309105CF
:100B30000CF062C0009719F00197C1F05DC089E325
:100B400090E0FC018081882F90E02B81222F30E003
:100B500002C0959587952A95E2F781709927892B90
:100B600019F081E0898348C0198246C086E390E08D
:100B7000FC018081882F90E02B81222F30E002C081
:100B8000959587952A95E2F781709927892B19F019
:100B900081E0898331C019822FC083E390E0FC019A
:100BA0008081882F90E02B81222F30E002C0959524
:100BB00087952A95E2F781709927892B19F081E0B2
:100BC00089831AC0198218C080E390E0FC018081FB
:100BD000882F90E02B81222F30E002C095958795D9
:100BE0002A95E2F781709927892B19F081E0898392
:100BF00003C0198201C0000089810F900F900F90EF
:100C0000DF91CF910895CF93DF9300D0CDB7DEB7BA
:100C100089836A838981843060F58981882F90E097
:100C20008330910501F1843091051CF582309105E6
:100C3000A1F083309105ECF4009719F0019739F099
:100C400018C08AE390E02A81FC01208312C087E368
:100C500090E02A81FC0120830CC084E390E02A818B
:100C6000FC01208306C081E390E02A81FC012083FF
:100C7000000000000F900F90DF91CF910895CF9367
:100C8000DF9300D0CDB7DEB789836A838981843052
:100C900060F58981882F90E08330910501F18430DF
:100CA00091051CF582309105A1F083309105ECF49B
:100CB000009719F0019739F018C08BE390E02A8172
:100CC000FC01208312C088E390E02A81FC0120838C
:100CD0000CC085E390E02A81FC01208306C082E3FA
:100CE00090E02A81FC012083000000000F900F900B
:100CF000DF91CF910895CF93DF9300D0CDB7DEB7CA
:100D00008A8319828A81843060F58A81882F90E0F5
:100D10008330910501F1843091051CF582309105F5
:100D2000A1F083309105ECF4009719F0019739F0A8
:100D300018C089E390E0FC018081898312C086E3BA
:100D400090E0FC01808189830CC083E390E0FC018A
:100D50008081898306C080E390E0FC0180818983E3
:100D6000000089810F900F90DF91CF9108951F921D
:100D70000F920FB60F9211242F933F934F935F93CF
:100D80006F937F938F939F93AF93BF93EF93FF9353
:100D9000CF93DF93CDB7DEB78091990090919A0001
:100DA000892B31F08091990090919A00FC0109956E
:100DB0000000DF91CF91FF91EF91BF91AF919F9193
:100DC0008F917F916F915F914F913F912F910F90F4
:100DD0000FBE0F901F901895CF93DF9300D0CDB723
:100DE000DEB79A83898381E390E0FC01408181E34F
:100DF00090E04F7BFC0140838FE490E04CE0FC01ED
:100E000040838EE490E0FC018081482F487F8981F7
:100E10009A81FC018081482B8EE490E0FC014083A4
:100E20008EE490E0FC018081482F4F7B89819A817C
:100E3000FC018181882F90E0382F36953695282F38
:100E40002295220F220F207C822F242F282B8EE424
:100E500090E0FC0120838CE490E0FC011182108280
:100E600086E490E0FC011182108289E590E0FC01AB
:100E7000208189E590E02062FC01208300000F9032
:100E80000F90DF91CF910895CF93DF9300D0CDB72E
:100E9000DEB79A83898389819A8190939A0080939F
:100EA000990000000F900F90DF91CF910895CF939C
:100EB000DF930F92CDB7DEB789838EE490E0FC011B
:100EC0008081482F4F7B8981882F90E0382F36957D
:100ED0003695282F2295220F220F207C822F242F37
:100EE000282B8EE490E0FC01208300000F90DF911E
:100EF000CF910895CF93DF93CDB7DEB786E490E02E
:100F0000FC0180819181DF91CF910895CF93DF9390
:100F1000CDB7DEB78CE490E0FC01118210820000B6
:100F2000DF91CF910895CF93DF93CDB7DEB78FE4F4
:100F300090E0FC0110828EE490E0FC0110828CE4D1
:100F400090E0FC011182108286E490E0FC011182A5
:100F5000108289E590E0FC01208189E590E02F7DF9
:100F6000FC01208310929A00109299000000DF91FA
:100F7000CF910895CF93DF93CDB7DEB7A2970FB689
:100F8000F894DEBF0FBECDBF41E061E080E00E947B
:100F9000950341E062E080E00E94950380E090E0EC
:100FA000A0EAB1E489839A83AB83BC8320E030E07C
:100FB0004AE755E469817A818B819C810E942618D9
:100FC0006B8B7C8B8D8B9E8B8B899C89AD89BE892D
:100FD0008D839E83AF83B88720E030E040E85FE3F5
:100FE0006D817E818F8198850E94C91688232CF49B
:100FF00081E090E09A87898754C020E03FEF4FE777
:1010000057E46D817E818F8198850E942118181682
:10101000D4F520E030E040E251E469817A818B81AF
:101020009C810E9426186F8B788F898F9A8F8F8969
:10103000988DA98DBA8D8F87988BA98BBA8B6F8568
:10104000788989899A890E9440176B8F7C8F8D8F50
:101050009E8FAB8DBC8DBA87A98710C080E991E0C7
:101060009C878B878B859C850197F1F79C878B8765
:10107000000089859A8501979A87898789859A854D
:10108000892B61F719C06D817E818F8198850E94BF
:1010900040176F8F78A389A39AA38F8D98A19A8701
:1010A000898789859A859E878D878D859E850197FD
:1010B000F1F79E878D87000041E063E080E00E94A9
:1010C000950341E064E080E00E94950341E065E023
:1010D00080E00E94950341E066E080E00E94950375
:1010E00083E30E94890882E30E94890888E20E94C3
:1010F00089088CE00E94890881E00E94890800002C
:10110000A2960FB6F894DEBF0FBECDBFDF91CF9190
:1011100008950F931F93CF93DF93CDB7DEB7CF5EC4
:10112000D1090FB6F894DEBF0FBECDBF9E012D5979
:101130003F4FD9018C9340E061E080E00E9486043B
:101140009E012B5A3F4F80E090E0A0E8BFE3F901F9
:1011500080839183A283B3838E01075A1F4FCE01F0
:101160008B5A9F4F20E030E04AE755E4DC016D9157
:101170007D918D919C910E942618C058DF4F688305
:1011800079838A839B83C058D040C058DF4F288121
:1011900039814A815B81C058D040D8012D933D935D
:1011A0004D935C931397CE01875A9F4F20E030E018
:1011B00040E85FE3FC0160817181828193810E943C
:1011C000C91688234CF4CE01835A9F4F21E030E0AA
:1011D000DC012D933C93A2C0CE01875A9F4F20E0A3
:1011E0003FEF4FE757E4FC01608171818281938179
:1011F0000E94211818160CF073C0CE018B5A9F4F15
:1012000020E030E040E251E4DC016D917D918D9170
:101210009C910E942618CC57DF4F688379838A837C
:101220009B83C458D040CC57DF4F288139814A81F5
:101230005B81C458D040C458DF4F288339834A8328
:101240005B83CC57D0408E01035A1F4FC458DF4FE9
:10125000688179818A819B81CC57D0400E94401758
:10126000C857DF4F688379838A839B83C858D040EF
:10127000C857DF4FE881F981C858D040D801ED93B5
:10128000FC9325C0CE01815A9F4F20E931E0DC015B
:101290002D933C93CE01815A9F4FFC018081918117
:1012A0000197F1F79E01215A3F4FD9018D939C93ED
:1012B0000000CE01835A9F4F9E01235A3F4FF901F0
:1012C0002081318121503109DC012D933C93CE01E5
:1012D000835A9F4FFC0180819181892B99F639C0F7
:1012E0008E01035A1F4FCE01875A9F4FDC016D912B
:1012F0007D918D919C910E944017C457DF4F688368
:1013000079838A839B83CC58D040C457DF4F288190
:101310003981CC58D040F80131832083CE018F59D8
:101320009F4F9E01235A3F4FD9012D913C91FC01C3
:1013300031832083CE018F599F4FDC018D919C9189
:101340000197F1F79E012F593F4FF9019183808357
:10135000000041E062E080E00E9486049E01295B7B
:101360003F4F80E090E0A0E8BFE3F90180839183E4
:10137000A283B3838E01055B1F4FCE01895B9F4F14
:1013800020E030E04AE755E4DC016D917D918D91DC
:101390009C910E942618C057DF4F688379838A8307
:1013A0009B83C059D040C057DF4F288139814A8183
:1013B0005B81C059D040D8012D933D934D935C93F0
:1013C0001397CE01855B9F4F20E030E040E85FE35C
:1013D000FC0160817181828193810E94C9168823FA
:1013E0004CF4CE01815B9F4F21E030E0DC012D9376
:1013F0003C939EC0CE01855B9F4F20E03FEF4FE7BF
:1014000057E4FC0160817181828193810E942118DF
:1014100018160CF06FC0CE01895B9F4F20E030E0C2
:1014200040E251E4DC016D917D918D919C910E948F
:101430002618CC56DF4F688379838A839B83C459EF
:10144000D040CC56DF4F288139814A815B81C45915
:10145000D040EC962CAF3DAF4EAF5FAFEC978E0116
:10146000015B1F4FEC966CAD7DAD8EAD9FADEC97E3
:101470000E944017C856DF4F688379838A839B8315
:10148000C859D040C856DF4FE881F981C859D040CB
:10149000D801ED93FC9325C0CE018F5A9F4F20E9D0
:1014A00031E0DC012D933C93CE018F5A9F4FFC011C
:1014B000808191810197F1F79E012F5A3F4FD90109
:1014C0008D939C930000CE01815B9F4F9E01215B19
:1014D0003F4FF9012081318121503109DC012D93E9
:1014E0003C93CE01815B9F4FFC0180819181892BD0
:1014F00099F639C08E01015B1F4FCE01855B9F4F6E
:10150000DC016D917D918D919C910E944017C45694
:10151000DF4F688379838A839B83CC59D040C4563C
:10152000DF4F28813981CC59D040F80131832083A5
:10153000CE018D5A9F4F9E01215B3F4FD9012D91C6
:101540003C91FC0131832083CE018D5A9F4FDC01F9
:101550008D919C910197F1F79E012D5A3F4FF90112
:10156000918380830000CE018D599F4FDC018C91C7
:10157000882F90E095958795959587959595879572
:10158000959587958170482F63E080E00E948604DE
:10159000CE018D599F4FFC018081882F90E0959559
:1015A0008795959587959595879595958795959523
:1015B00087958170482F64E080E00E948604CE0108
:1015C0008D599F4FDC018C91882F90E0082E892F38
:1015D000000C881F990B000C881F991F8170482FE1
:1015E00065E080E00E948604CE018D599F4FFC018A
:1015F0008081881F8827881F482F66E080E00E942E
:10160000860480E090E0A0E8BFE389AF9AAFABAF7B
:10161000BCAF20E030E04AE755E469AD7AAD8BAD70
:101620009CAD0E942618C056DF4F688379838A8359
:101630009B83C05AD040CE01CD96C056DF4F288143
:1016400039814A815B81C05AD040DC012D933D93A2
:101650004D935C93139720E030E040E85FE3CE01C8
:10166000CD96FC0160817181828193810E94C916AF
:1016700088234CF4CE018F5B9F4F21E030E0DC01EA
:101680002D933C9398C020E03FEF4FE757E4CE0105
:10169000CD96FC0160817181828193810E94211825
:1016A00018160CF06BC020E030E040E251E469AD68
:1016B0007AAD8BAD9CAD0E942618CC55DF4F688368
:1016C00079838A839B83C45AD040CC55DF4F2881CD
:1016D00039814A815B81C45AD040E8962CAF3DAF36
:1016E0004EAF5FAFE8978E010F5B1F4FE8966CAD72
:1016F0007DAD8EAD9FADE8970E944017C855DF4F76
:10170000688379838A839B83C85AD040C855DF4F4A
:10171000E881F981C85AD040D801ED93FC9325C0E7
:10172000CE018D5B9F4F20E931E0DC012D933C938E
:10173000CE018D5B9F4FFC01808191810197F1F774
:101740009E012D5B3F4FD9018D939C930000CE01EC
:101750008F5B9F4F9E012F5B3F4FF90120813181AD
:1017600021503109DC012D933C93CE018F5B9F4FBB
:10177000FC0180819181892B99F638C08E010F5B25
:101780001F4FCE01CD96DC016D917D918D919C9185
:101790000E944017C455DF4F688379838A839B83F7
:1017A000CC5AD040C455DF4F28813981CC5AD04023
:1017B000F80131832083CE018B5B9F4F9E012F5B0D
:1017C0003F4FD9012D913C91FC0131832083CE0103
:1017D0008B5B9F4FDC018D919C910197F1F79E01EE
:1017E0002B5B3F4FF90191838083000040E062E072
:1017F00080E00E94860480E090E0A0E8BFE38BA731
:101800009CA7ADA7BEA720E030E04AE755E46BA552
:101810007CA58DA59EA50E942618C055DF4F688324
:1018200079838A839B83C05BD040C055DF4F28817A
:1018300039814A815B81C05BD0402FA738AB49AB6F
:101840005AAB20E030E040E85FE36FA578A989A9B2
:101850009AA90E94C91688232CF481E090E09CABE1
:101860008BAB71C020E03FEF4FE757E46FA578A93D
:1018700089A99AA90E94211818160CF04EC020E0E0
:1018800030E040E251E46BA57CA58DA59EA50E94A9
:101890002618CC54DF4F688379838A839B83C45B8B
:1018A000D040CC54DF4F88819981AA81BB81C45B31
:1018B000D040E4968CAF9DAFAEAFBFAFE497E49657
:1018C0006CAD7DAD8EAD9FADE4970E944017C854BE
:1018D000DF4F688379838A839B83C85BD040C85479
:1018E000DF4FA881B981C85BD040BCABABAB10C0A7
:1018F00080E991E09EAB8DAB8DA99EA90197F1F790
:101900009EAB8DAB00008BA99CA901979CAB8BABC8
:101910008BA99CA9892B61F721C06FA578A989A9FA
:101920009AA90E944017C454DF4F688379838A8341
:101930009B83CC5BD040C454DF4FE881F981CC5B02
:10194000D040FCABEBAB8BA99CA998AF8FAB8FA918
:1019500098AD0197F1F798AF8FAB000041E062E0DE
:1019600080E00E94860480E090E0A0E8BFE38D8FD5
:101970009E8FAF8FB8A320E030E04AE755E46D8D2D
:101980007E8D8F8D98A10E942618C054DF4F6883EA
:1019900079838A839B83C05CD040C054DF4F288109
:1019A00039814A815B81C05CD04029A33AA34BA313
:1019B0005CA320E030E040E85FE369A17AA18BA15D
:1019C0009CA10E94C91688232CF481E090E09EA37C
:1019D0008DA371C020E03FEF4FE757E469A17AA1E2
:1019E0008BA19CA10E94211818160CF04EC020E07B
:1019F00030E040E251E46D8D7E8D8F8D98A10E9484
:101A00002618CC53DF4F688379838A839B83C45C19
:101A1000D040CC53DF4F88819981AA81BB81C45CBF
:101A2000D040E0968CAF9DAFAEAFBFAFE097E096F1
:101A30006CAD7DAD8EAD9FADE0970E944017C85351
:101A4000DF4F688379838A839B83C85CD040C85307
:101A5000DF4FA881B981C85CD040BEA3ADA310C040
:101A600080E991E098A78FA38FA198A50197F1F73E
:101A700098A78FA300008DA19EA101979EA38DA37F
:101A80008DA19EA1892B61F721C069A17AA18BA1AB
:101A90009CA10E944017C453DF4F688379838A83D7
:101AA0009B83CC5CD040C453DF4FE881F981CC5C90
:101AB000D040FEA3EDA38DA19EA19AA789A789A5D9
:101AC0009AA50197F1F79AA789A70000CE018D5931
:101AD0009F4FDC018C918170482F63E080E00E9471
:101AE0008604CE018D599F4FFC018081882F90E0A4
:101AF000959587958170482F64E080E00E94860468
:101B0000CE018D599F4FDC018C91882F90E09595E7
:101B10008795959587958170482F65E080E00E94B4
:101B20008604CE018D599F4FFC018081882F90E063
:101B30009595879595958795959587958170482F6B
:101B400066E080E00E94860480E090E0A0E8BFE3C9
:101B50008F87988BA98BBA8B20E030E04AE755E459
:101B60006F85788989899A890E942618C053DF4F2A
:101B7000688379838A839B83C05DD040C053DF4FE5
:101B8000288139814A815B81C05DD0402B8B3C8BA1
:101B90004D8B5E8B20E030E040E85FE36B897C8911
:101BA0008D899E890E94C91688232CF481E090E0DB
:101BB000988F8F8B71C020E03FEF4FE757E46B8920
:101BC0007C898D899E890E94211818160CF04EC0C0
:101BD00020E030E040E251E46F85788989899A8974
:101BE0000E942618CC52DF4F688379838A839B83B7
:101BF000C45DD040CC52DF4F88819981AA81BB81DE
:101C0000C45DD040AC968CAF9DAFAEAFBFAFAC97CC
:101C1000AC966CAD7DAD8EAD9FADAC970E9440177C
:101C2000C852DF4F688379838A839B83C85DD04025
:101C3000C852DF4FA881B981C85DD040B88FAF8B43
:101C400010C080E991E09A8F898F898D9A8D0197D4
:101C5000F1F79A8F898F00008F89988D0197988F5F
:101C60008F8B8F89988D892B61F721C06B897C8937
:101C70008D899E890E944017C452DF4F6883798303
:101C80008A839B83CC5DD040C452DF4FE881F981C9
:101C9000CC5DD040F88FEF8B8F89988D9C8F8B8F88
:101CA0008B8D9C8D0197F1F79C8F8B8F000040E00E
:101CB00062E080E00E94860480E090E0A0E8BFE35C
:101CC00089839A83AB83BC8320E030E04AE755E404
:101CD00069817A818B819C810E942618C052DF4FD6
:101CE000688379838A839B83C05ED040C052DF4F74
:101CF000288139814A815B81C05ED0402D833E833B
:101D00004F83588720E030E040E85FE36D817E81BB
:101D10008F8198850E94C91688232CF481E090E079
:101D20009A87898771C020E03FEF4FE757E46D81C4
:101D30007E818F8198850E94211818160CF04EC064
:101D400020E030E040E251E469817A818B819C811E
:101D50000E942618CC51DF4F688379838A839B8346
:101D6000C45ED040CC51DF4F88819981AA81BB816C
:101D7000C45ED040A8968CAF9DAFAEAFBFAFA89762
:101D8000A8966CAD7DAD8EAD9FADA8970E94401713
:101D9000C851DF4F688379838A839B83C85ED040B4
:101DA000C851DF4FA881B981C85ED040BA87A987E2
:101DB00010C080E991E09C878B878B859C8501977B
:101DC000F1F79C878B87000089859A8501979A8710
:101DD000898789859A85892B61F721C06D817E81EC
:101DE0008F8198850E944017C451DF4F68837983A3
:101DF0008A839B83CC5ED040C451DF4FE881F98158
:101E0000CC5ED040FA87E98789859A859E878D8741
:101E10008D859E850197F1F79E878D8700000000D4
:101E2000C151DF4F0FB6F894DEBF0FBECDBFDF91BB
:101E3000CF911F910F9108950F931F93CF93DF932D
:101E4000CDB7DEB7CF5ED1090FB6F894DEBF0FBEB7
:101E5000CDBF9E012D593F4FD9018C9341E061E0E8
:101E600080E00E9486049E012B5A3F4F80E090E064
:101E7000A0E8BFE3F90180839183A283B3838E013D
:101E8000075A1F4FCE018B5A9F4F20E030E04AE7A0
:101E900055E4DC016D917D918D919C910E942618F5
:101EA000C058DF4F688379838A839B83C058D040B2
:101EB000C058DF4F288139814A815B81C058D040AA
:101EC000D8012D933D934D935C931397CE01875A80
:101ED0009F4F20E030E040E85FE3FC0160817181CA
:101EE000828193810E94C91688234CF4CE01835AC3
:101EF0009F4F21E030E0DC012D933C93A2C0CE0146
:101F0000875A9F4F20E03FEF4FE757E4FC01608185
:101F10007181828193810E94211818160CF073C080
:101F2000CE018B5A9F4F20E030E040E251E4DC01CB
:101F30006D917D918D919C910E942618CC57DF4F19
:101F4000688379838A839B83C458D040CC57DF4F02
:101F5000288139814A815B81C458D040C458DF4F01
:101F6000288339834A835B83CC57D0408E01035A40
:101F70001F4FC458DF4F688179818A819B81CC577C
:101F8000D0400E944017C857DF4F688379838A8307
:101F90009B83C858D040C857DF4FE881F981C858A3
:101FA000D040D801ED93FC9325C0CE01815A9F4FBC
:101FB00020E931E0DC012D933C93CE01815A9F4F03
:101FC000FC01808191810197F1F79E01215A3F4FD9
:101FD000D9018D939C930000CE01835A9F4F9E019F
:101FE000235A3F4FF9012081318121503109DC0111
:101FF0002D933C93CE01835A9F4FFC0180819181A8
:10200000892B99F639C08E01035A1F4FCE01875A8A
:102010009F4FDC016D917D918D919C910E944017A5
:10202000C457DF4F688379838A839B83CC58D04021
:10203000C457DF4F28813981CC58D040F801318313
:102040002083CE018F599F4F9E01235A3F4FD901C4
:102050002D913C91FC0131832083CE018F599F4FFC
:10206000DC018D919C910197F1F79E012F593F4F13
:10207000F90191838083000041E062E080E00E94EA
:1020800086049E01295B3F4F80E090E0A0E8BFE31B
:10209000F90180839183A283B3838E01055B1F4F77
:1020A000CE01895B9F4F20E030E04AE755E4DC0138
:1020B0006D917D918D919C910E942618C057DF4FA4
:1020C000688379838A839B83C059D040C057DF4F90
:1020D000288139814A815B81C059D040D8012D9334
:1020E0003D934D935C931397CE01855B9F4F20E00A
:1020F00030E040E85FE3FC0160817181828193817F
:102100000E94C91688234CF4CE01815B9F4F21E0C9
:1021100030E0DC012D933C939EC0CE01855B9F4F48
:1021200020E03FEF4FE757E4FC016081718182813D
:1021300093810E94211818160CF06FC0CE01895BA4
:102140009F4F20E030E040E251E4DC016D917D9151
:102150008D919C910E942618CC56DF4F688379831D
:102160008A839B83C459D040CC56DF4F2881398164
:102170004A815B81C459D040EC962CAF3DAF4EAF45
:102180005FAFEC978E01015B1F4FEC966CAD7DADA0
:102190008EAD9FADEC970E944017C856DF4F688305
:1021A00079838A839B83C859D040C856DF4FE88122
:1021B000F981C859D040D801ED93FC9325C0CE01D8
:1021C0008F5A9F4F20E931E0DC012D933C93CE01E3
:1021D0008F5A9F4FFC01808191810197F1F79E01F9
:1021E0002F5A3F4FD9018D939C930000CE01815B04
:1021F0009F4F9E01215B3F4FF9012081318121508A
:102200003109DC012D933C93CE01815B9F4FFC0192
:1022100080819181892B99F639C08E01015B1F4F16
:10222000CE01855B9F4FDC016D917D918D919C91DD
:102230000E944017C456DF4F688379838A839B834B
:10224000CC59D040C456DF4F28813981CC59D04079
:10225000F80131832083CE018D5A9F4F9E01215B6F
:102260003F4FD9012D913C91FC0131832083CE0158
:102270008D5A9F4FDC018D919C910197F1F79E0142
:102280002D5A3F4FF901918380830000CE018D5973
:102290009F4FDC018C91882F90E0959587959595BF
:1022A000879595958795959587958170482F63E0DB
:1022B00080E00E948604CE018D599F4FFC018081F1
:1022C000882F90E095958795959587959595879515
:1022D00095958795959587958170482F64E080E066
:1022E0000E948604CE018D599F4FDC018C91882F6E
:1022F00090E0082E892F000C881F990B000C881F76
:10230000991F8170482F65E080E00E948604CE010D
:102310008D599F4FFC018081881F8827881F482F77
:1023200066E080E00E94860480E090E0A0E8BFE3E1
:1023300089AF9AAFABAFBCAF20E030E04AE755E4DD
:1023400069AD7AAD8BAD9CAD0E942618C056DF4FAB
:10235000688379838A839B83C05AD040CE01CD960F
:10236000C056DF4F288139814A815B81C05AD040F5
:10237000DC012D933D934D935C93139720E030E067
:1023800040E85FE3CE01CD96FC01608171818281DE
:1023900093810E94C91688234CF4CE018F5B9F4F16
:1023A00021E030E0DC012D933C9398C020E03FEF2A
:1023B0004FE757E4CE01CD96FC01608171818281A7
:1023C00093810E94211818160CF06BC020E030E0B9
:1023D00040E251E469AD7AAD8BAD9CAD0E94261808
:1023E000CC55DF4F688379838A839B83C45AD0405E
:1023F000CC55DF4F288139814A815B81C45AD04056
:10240000E8962CAF3DAF4EAF5FAFE8978E010F5B04
:102410001F4FE8966CAD7DAD8EAD9FADE8970E94E5
:102420004017C855DF4F688379838A839B83C85AD6
:10243000D040C855DF4FE881F981C85AD040D80153
:10244000ED93FC9325C0CE018D5B9F4F20E931E0D9
:10245000DC012D933C93CE018D5B9F4FFC0180816D
:1024600091810197F1F79E012D5B3F4FD9018D932B
:102470009C930000CE018F5B9F4F9E012F5B3F4FCF
:10248000F9012081318121503109DC012D933C93E8
:10249000CE018F5B9F4FFC0180819181892B99F642
:1024A00038C08E010F5B1F4FCE01CD96DC016D91C0
:1024B0007D918D919C910E944017C455DF4F688398
:1024C00079838A839B83CC5AD040C455DF4F2881BF
:1024D0003981CC5AD040F80131832083CE018B5B07
:1024E0009F4F9E012F5B3F4FD9012D913C91FC01E5
:1024F00031832083CE018B5B9F4FDC018D919C91BA
:102500000197F1F79E012B5B3F4FF9019183808387
:10251000000040E062E080E00E94860480E090E0FD
:10252000A0E8BFE38BA79CA7ADA7BEA720E030E043
:102530004AE755E46BA57CA58DA59EA50E942618AB
:10254000C055DF4F688379838A839B83C05BD0400B
:10255000C055DF4F288139814A815B81C05BD04003
:102560002FA738AB49AB5AAB20E030E040E85FE33F
:102570006FA578A989A99AA90E94C91688232CF465
:1025800081E090E09CAB8BAB71C020E03FEF4FE768
:1025900057E46FA578A989A99AA90E94211818164D
:1025A0000CF04EC020E030E040E251E46BA57CA589
:1025B0008DA59EA50E942618CC54DF4F6883798391
:1025C0008A839B83C45BD040CC54DF4F8881998140
:1025D000AA81BB81C45BD040E4968CAF9DAFAEAF07
:1025E000BFAFE497E4966CAD7DAD8EAD9FADE49743
:1025F0000E944017C854DF4F688379838A839B8386
:10260000C85BD040C854DF4FA881B981C85BD040B7
:10261000BCABABAB10C080E991E09EAB8DAB8DA99C
:102620009EA90197F1F79EAB8DAB00008BA99CA9E9
:1026300001979CAB8BAB8BA99CA9892B61F721C01F
:102640006FA578A989A99AA90E944017C454DF4FA1
:10265000688379838A839B83CC5BD040C454DF4FEB
:10266000E881F981CC5BD040FCABEBAB8BA99CA99A
:1026700098AF8FAB8FA998AD0197F1F798AF8FAB5B
:10268000000041E062E080E00E94860480E090E08B
:10269000A0E8BFE38D8F9E8FAF8FB8A320E030E01E
:1026A0004AE755E46D8D7E8D8F8D98A10E94261886
:1026B000C054DF4F688379838A839B83C05CD0409A
:1026C000C054DF4F288139814A815B81C05CD04092
:1026D00029A33AA34BA35CA320E030E040E85FE3EA
:1026E00069A17AA18BA19CA10E94C91688232CF410
:1026F00081E090E09EA38DA371C020E03FEF4FE703
:1027000057E469A17AA18BA19CA10E9421181816F7
:102710000CF04EC020E030E040E251E46D8D7E8D43
:102720008F8D98A10E942618CC53DF4F6883798340
:102730008A839B83C45CD040CC53DF4F88819981CE
:10274000AA81BB81C45CD040E0968CAF9DAFAEAF98
:10275000BFAFE097E0966CAD7DAD8EAD9FADE097DD
:102760000E944017C853DF4F688379838A839B8315
:10277000C85CD040C853DF4FA881B981C85CD04045
:10278000BEA3ADA310C080E991E098A78FA38FA14D
:1027900098A50197F1F798A78FA300008DA19EA19E
:1027A00001979EA38DA38DA19EA1892B61F721C0C6
:1027B00069A17AA18BA19CA10E944017C453DF4F4D
:1027C000688379838A839B83CC5CD040C453DF4F7A
:1027D000E881F981CC5CD040FEA3EDA38DA19EA140
:1027E0009AA789A789A59AA50197F1F79AA789A71A
:1027F0000000CE018D599F4FDC018C918170482FD4
:1028000063E080E00E948604CE018D599F4FFC0159
:102810008081882F90E0959587958170482F64E09E
:1028200080E00E948604CE018D599F4FDC018C917F
:10283000882F90E095958795959587958170482F7D
:1028400065E080E00E948604CE018D599F4FFC0117
:102850008081882F90E0959587959595879595959A
:1028600087958170482F66E080E00E94860480E0B2
:1028700090E0A0E8BFE38F87988BA98BBA8B20E00C
:1028800030E04AE755E46F85788989899A890E9402
:102890002618C053DF4F688379838A839B83C05D8A
:1028A000D040C053DF4F288139814A815B81C05DB0
:1028B000D0402B8B3C8B4D8B5E8B20E030E040E892
:1028C0005FE36B897C898D899E890E94C916882364
:1028D0002CF481E090E0988F8F8B71C020E03FEF67
:1028E0004FE757E46B897C898D899E890E94211866
:1028F00018160CF04EC020E030E040E251E46F8545
:10290000788989899A890E942618CC52DF4F68837A
:1029100079838A839B83C45DD040CC52DF4F88810A
:102920009981AA81BB81C45DD040AC968CAF9DAF2C
:10293000AEAFBFAFAC97AC966CAD7DAD8EAD9FAD7D
:10294000AC970E944017C852DF4F688379838A830F
:102950009B83C85DD040C852DF4FA881B981C85D54
:10296000D040B88FAF8B10C080E991E09A8F898FEB
:10297000898D9A8D0197F1F79A8F898F00008F8941
:10298000988D0197988F8F8B8F89988D892B61F700
:1029900021C06B897C898D899E890E944017C45211
:1029A000DF4F688379838A839B83CC5DD040C45298
:1029B000DF4FE881F981CC5DD040F88FEF8B8F89B4
:1029C000988D9C8F8B8F8B8D9C8D0197F1F79C8FB1
:1029D0008B8F000040E062E080E00E94860480E08F
:1029E00090E0A0E8BFE389839A83AB83BC8320E0B7
:1029F00030E04AE755E469817A818B819C810E94AD
:102A00002618C052DF4F688379838A839B83C05E18
:102A1000D040C052DF4F288139814A815B81C05E3E
:102A2000D0402D833E834F83588720E030E040E83C
:102A30005FE36D817E818F8198850E94C91688230E
:102A40002CF481E090E09A87898771C020E03FEF05
:102A50004FE757E46D817E818F8198850E94211810
:102A600018160CF04EC020E030E040E251E46981DD
:102A70007A818B819C810E942618CC51DF4F68831C
:102A800079838A839B83C45ED040CC51DF4F888199
:102A90009981AA81BB81C45ED040A8968CAF9DAFBE
:102AA000AEAFBFAFA897A8966CAD7DAD8EAD9FAD14
:102AB000A8970E944017C851DF4F688379838A83A3
:102AC0009B83C85ED040C851DF4FA881B981C85EE2
:102AD000D040BA87A98710C080E991E09C878B8796
:102AE0008B859C850197F1F79C878B8700008985F2
:102AF0009A8501979A87898789859A85892B61F7B5
:102B000021C06D817E818F8198850E944017C451BC
:102B1000DF4F688379838A839B83CC5ED040C45126
:102B2000DF4FE881F981CC5ED040FA87E98789855B
:102B30009A859E878D878D859E850197F1F79E8763
:102B40008D8700000000C151DF4F0FB6F894DEBF43
:102B50000FBECDBFDF91CF911F910F910895CF93FD
:102B6000DF9300D00F92CDB7DEB79B838A831982A3
:102B70000EC08981882F90E02A813B81820F931FAC
:102B8000FC0180810E941C0F89818F5F898389816C
:102B9000882F90E02A813B81820F931FFC01808166
:102BA000882339F7000000000F900F900F90DF91FD
:102BB000CF910895CF93DF9300D00F92CDB7DEB7BA
:102BC0008A836B838A81882F90E083309105C9F0D6
:102BD00084309105D4F48230910579F083309105E9
:102BE000A4F4009719F0019721F00FC08B8189831D
:102BF0000CC08B81805C898308C08B81805F898356
:102C000004C08B81805B89830000898180680E9479
:102C1000890800000F900F900F90DF91CF910895D9
:102C2000CF93DF9300D000D0CDB7DEB789836A831E
:102C30005C834B836A8189810E94DA158B819C8138
:102C40000E94AF1500000F900F900F900F90DF9132
:102C5000CF910895CF93DF93CDB7DEB762970FB6CC
:102C6000F894DEBF0FBECDBF9A8B898B89899A8974
:102C70004AE050E09E012F5F3F4FB9010E94931838
:102C8000CE0101960E94AF15000062960FB6F8942F
:102C9000DEBF0FBECDBFDF91CF910895CF93DF93FD
:102CA000CDB7DEB781E00E9489080000DF91CF91A7
:102CB0000895CF93DF93CDB7DEB741E060E082E0C7
:102CC0000E94950340E060E082E00E94860441E0BB
:102CD00061E082E00E94950340E061E082E00E94B2
:102CE000860441E062E082E00E94950340E062E0F9
:102CF00082E00E9486040000DF91CF910895CF9377
:102D0000DF930F92CDB7DEB789838981882331F4B1
:102D100041E060E082E00E94860411C08981813038
:102D200031F441E061E082E00E94860408C08981BC
:102D3000823029F441E062E082E00E9486040000D3
:102D40000F90DF91CF910895CF93DF930F92CDB77E
:102D5000DEB789838981882331F440E060E082E036
:102D60000E94860411C08981813031F440E061E025
:102D700082E00E94860408C08981823029F440E004
:102D800062E082E00E94860400000F90DF91CF9104
:102D900008950E94AC1708F481E008950E94E2169D
:102DA0000C94E7170E94E01758F00E94D91740F0E2
:102DB00029F45F3F29F00C94D01751110C941B1883
:102DC0000C94D6170E94F81768F39923B1F3552392
:102DD00091F3951B550BBB27AA276217730784072E
:102DE00038F09F5F5F4F220F331F441FAA1FA9F3C4
:102DF00035D00E2E3AF0E0E832D091505040E695B2
:102E0000001CCAF72BD0FE2F29D0660F771F881F12
:102E1000BB1F261737074807AB07B0E809F0BB0B05
:102E2000802DBF01FF2793585F4F3AF09E3F510519
:102E300078F00C94D0170C941B185F3FE4F3983E85
:102E4000D4F3869577956795B795F7959F5FC9F702
:102E5000880F911D9695879597F90895E1E0660F83
:102E6000771F881FBB1F621773078407BA0720F0FC
:102E7000621B730B840BBA0BEE1F88F7E095089565
:102E80000E94001888F09F5798F0B92F9927B751E2
:102E9000B0F0E1F0660F771F881F991F1AF0BA95FE
:102EA000C9F714C0B13091F00E941A18B1E008952A
:102EB0000C941A18672F782F8827B85F39F0B93F1C
:102EC000CCF3869577956795B395D9F73EF49095B1
:102ED0008095709561957F4F8F4F9F4F0895E8942F
:102EE00009C097FB3EF490958095709561957F4F52
:102EF0008F4F9F4F9923A9F0F92F96E9BB27939500
:102F0000F695879577956795B795F111F8CFFAF40F
:102F1000BB0F11F460FF1BC06F5F7F4F8F4F9F4F40
:102F200016C0882311F096E911C0772321F09EE89E
:102F3000872F762F05C0662371F096E8862F70E004
:102F400060E02AF09A95660F771F881FDAF7880FDE
:102F50009695879597F90895990F0008550FAA0B34
:102F6000E0E8FEEF16161706E807F907C0F012169C
:102F70001306E407F50798F0621B730B840B950B9F
:102F800039F40A2661F0232B242B252B21F40895F4
:102F90000A2609F4A140A6958FEF811D811D089591
:102FA00097F99F6780E870E060E008959FEF80ECFC
:102FB000089500240A94161617061806090608959F
:102FC00000240A9412161306140605060895092E05
:102FD0000394000C11F4882352F0BB0F40F4BF2B74
:102FE00011F460FF04C06F5F7F4F8F4F9F4F0895B4
:102FF00057FD9058440F551F59F05F3F71F04795AA
:10300000880F97FB991F61F09F3F79F0879508958E
:10301000121613061406551FF2CF4695F1DF08C0AD
:10302000161617061806991FF1CF869571056105CA
:1030300008940895E894BB2766277727CB0197F972
:1030400008950E94AC1708F48FEF08950E94391874
:103050000C94E7170E94D91738F00E94E01720F06F
:10306000952311F00C94D0170C94D61711240C94BE
:103070001B180E94F81770F3959FC1F3950F50E04D
:10308000551F629FF001729FBB27F00DB11D639F1A
:10309000AA27F00DB11DAA1F649F6627B00DA11DC0
:1030A000661F829F2227B00DA11D621F739FB00D66
:1030B000A11D621F839FA00D611D221F749F3327D6
:1030C000A00D611D231F849F600D211D822F762F6F
:1030D0006A2F11249F5750409AF0F1F088234AF04C
:1030E000EE0FFF1FBB1F661F771F881F91505040B8
:1030F000A9F79E3F510580F00C94D0170C941B1833
:103100005F3FE4F3983ED4F3869577956795B7953E
:10311000F795E7959F5FC1F7FE2B880F911D969558
:10312000879597F908954532510520F4423010F003
:103130000C949E18FB011082CB010895BB274A30E6
:1031400031F4992322F4BDE2909581959F4F0C9420
:10315000AA18BB27FB015527AA27880F991FAA1F6A
:10316000A41710F0A41B83955051B9F7A05DAA33A2
:1031700008F0A95DA193009779F7B111B19311926D
:10318000CB010C94C318DC01FC01672F71917723EC
:10319000E1F7329704C07C916D9370836291AE1712
:0A31A000BF07C8F30895F894FFCFAD
:1031AA0044697374616E63653D2020202020636D3D
:1031BA0000202000202020202053544F502121207D
:1031CA002020202000202020202020202020202015
:0631DA002020202000006F
:00000001FF
